:020000040800F2
:1000000000000524A9490008214700082F470008DF
:10001000374700083F470008474700080000000036
:10002000000000000000000000000000B1DE030836
:100030004F4700080000000001E1030839D1030820
:10004000F9490008F9490008F9490008F949000888
:10005000F9490008F9490008F9490008F949000878
:10006000F9490008F9490008F94900085D47000806
:10007000714700088547000899470008AD47000808
:10008000F9490008F9490008C1470008F949000882
:10009000F9490008F9490008F9490008F949000838
:1000A000F9490008F9490008F9490008F949000828
:1000B000F9490008F9490008F9490008F949000818
:1000C000F9490008F9490008F9490008F949000808
:1000D000F9490008F9490008F9490008F9490008F8
:1000E000F9490008F949000800000000F949000832
:1000F000F9490008F9490008F9490008F9490008D8
:10010000F9490008F9490008F9490008F9490008C7
:10011000DD470008F9490008F1470008F9490008DF
:10012000F9490008F9490008F9490008F9490008A7
:10013000F9490008F9490008F9490008F949000897
:1001400000000000000000000000000000000000AF
:10015000F9490008F9490008F9490008F949000877
:10016000F9490008F9490008F9490008F949000867
:10017000F9490008F9490008F9490008F949000857
:10018000F9490008F9490008F9490008F949000847
:10019000F9490008F9490008F9490008F949000837
:1001A00019480008F94900082D480008000000001F
:1001B000F9490008F9490008F9490008F949000817
:1001C000F9490008F949000800000000000000009B
:1001D0000000000000000000F949000800000000D5
:1001E000000000000000000000000000000000000F
:1001F0000000000000000000F9490008F94900086B
:10020000F9490008F949000800000000F949000810
:10021000F9490008F9490008F9490008F9490008B6
:10022000F949000800000000F9490008000000003A
:10023000F9490008F949000800000000F9490008E0
:10024000F9490008F9490008F9490008F949000886
:10025000F9490008F9490008F9490008F949000876
:10026000F9490008F9490008F9490008F949000866
:10027000F9490008F9490008F949000800000000A0
:10028000F9490008F9490008F9490008F949000846
:1002900000000000F9490008F9490008F949000880
:1002A000F9490008F9490008F9490008F949000826
:1002B000F9490008F9490008F9490008F949000816
:0C02C000F949000841480008F94900080D
:1002D00010B5054C237833B9044B13B10448AFF380
:1002E00000800123237010BDB8020024000000002C
:1002F000FC90050808B5034B1BB103490348AFF355
:10030000008008BD00000000BC020024FC9005082D
:1003100001F0FF01102A2BDB10F0070F08D010F8B6
:10032000013B013A8B422DD010F0070F42B3F6D1BA
:10033000F0B441EA012141EA014122F007047FF0D3
:1003400000070023F0E80256083C85EA010586EA2A
:10035000010685FA47F5A3FA87F586FA47F6A5FA66
:1003600087F68EB9EED1F0BC01F0FF0102F0070272
:1003700032B110F8013B013A83EA010313B1F8D11D
:100380000020704701387047002D06BF35460338FE
:10039000073815F0010F07D1013015F4807F02BF37
:1003A000013015F4C03F0130F0BC0138704700BF88
:1003B00081F0004102E000BF83F0004330B54FEA16
:1003C00041044FEA430594EA050F08BF90EA020F83
:1003D0001FBF54EA000C55EA020C7FEA645C7FEA16
:1003E000655C00F0E2804FEA5454D4EB5555B8BF39
:1003F0006D420CDD2C4480EA020281EA030382EAAA
:10040000000083EA010180EA020281EA0303362D3B
:1004100088BF30BD11F0004F4FEA01314FF4801C0E
:100420004CEA113102D0404261EB410113F0004F20
:100430004FEA03334CEA133302D0524263EB4303D7
:1004400094EA050F00F0A780A4F10104D5F1200E75
:100450000DDB02FA0EFC22FA05F2801841F10001D0
:1004600003FA0EF2801843FA05F359410EE0A5F1A4
:1004700020050EF1200E012A03FA0EFC28BF4CF0D5
:10048000020C43FA05F3C01851EBE37101F000458B
:1004900007D54FF0000EDCF1000C7EEB00006EEB98
:1004A0000101B1F5801F1BD3B1F5001F0CD3490822
:1004B0005FEA30004FEA3C0C04F101044FEA445279
:1004C00012F5800F80F09A80BCF1004F08BF5FEA00
:1004D000500C50F1000041EB045141EA050130BDE0
:1004E0005FEA4C0C404141EB0101013C28BFB1F5F2
:1004F000801FE9D291F0000F04BF01460020B1FA3D
:1005000081F308BF2033A3F10B03B3F120020CDA0F
:100510000C3208DD02F1140CC2F10C0201FA0CF0ED
:1005200021FA02F10CE002F11402D8BFC2F1200C52
:1005300001FA02F120FA0CFCDCBF41EA0C01904008
:10054000E41AA2BF01EB0451294330BD6FEA040451
:100550001F3C1CDA0C340EDC04F11404C4F120023C
:1005600020FA04F001FA02F340EA030021FA04F34E
:1005700045EA030130BDC4F10C04C4F1200220FAA5
:1005800002F001FA04F340EA0300294630BD21FAE3
:1005900004F0294630BD94F0000F83F4801306BFA9
:1005A00081F480110134013D4EE77FEA645C18BF9D
:1005B0007FEA655C29D094EA050F08BF90EA020F34
:1005C00005D054EA000C04BF1946104630BD91EA2C
:1005D000030F1EBF0021002030BD5FEA545C05D12F
:1005E0004000494128BF41F0004130BD14F580046E
:1005F0003CBF01F5801130BD01F0004545F0FE41E2
:1006000041F470014FF0000030BD7FEA645C1ABF16
:10061000194610467FEA655C1CBF0B46024650EA4D
:10062000013406BF52EA033591EA030F41F4002179
:1006300030BD00BF90F0000F04BF0021704730B5FF
:100640004FF4806404F132044FF000054FF00001D4
:1006500050E700BF90F0000F04BF0021704730B595
:100660004FF4806404F1320410F0004548BF40426A
:100670004FF000013EE700BF42004FEAE2014FEABF
:1006800031014FEA02701FBF12F07F4393F07F4F9A
:1006900081F06051704732F07F4208BF704793F09D
:1006A0007F4F04BF41F40021704730B54FF46074B0
:1006B00001F0004521F000411CE700BF50EA0102B3
:1006C00008BF704730B54FF000050AE050EA01025C
:1006D00008BF704730B511F0004502D5404261EBCC
:1006E00041014FF4806404F132045FEA915C3FF40D
:1006F000D8AE4FF003025FEADC0C18BF03325FEAAA
:10070000DC0C18BF033202EBDC02C2F1200300FA5A
:1007100003FC20FA02F001FA03FE40EA0E0021FA7F
:1007200002F11444BDE600BF53B94AB9002908BF1D
:1007300000281CBF4FF0FF314FF0FF3000F06AB9C6
:10074000ADF1080C6DE904CE00F006F8DDF804E028
:10075000DDE9022304B070472DE9F047089D0C46FF
:10076000002B4ED194468C458646B2FA82F262D96D
:100770004AB1C2F12003914020FA03F30CFA02FCC3
:10078000194300FA02FE4FEA1C471FFA8CF6B1FB30
:10079000F7F44FEA1E4307FB141143EA014304FB3D
:1007A00006F199420AD91CEB030304F1FF3080F0F3
:1007B0001281994240F20F81023C6344591A1FFA98
:1007C0008EF3B1FBF7F007FB101143EA014300FB86
:1007D00006F69E420AD91CEB030300F1FF3180F0BC
:1007E000FC809E4240F2F980634402389B1B40EA41
:1007F000044000211DB1D3400022C5E90032BDE80C
:10080000F0878B4205D90DB1C5E9000100210846EA
:10081000F5E7B3FA83F1002946D1A34202D390420F
:10082000C0F0F080861A64EB03030120002DE6D0AF
:10083000C5E90063E3E7002A40F09080A1EB0C04D7
:100840004FEA1C481FFA8CF70121B4FBF8F64FEA77
:100850001E4308FB164443EA044307FB06F0984294
:1008600008D91CEB030306F1FF3402D2984200F2D0
:10087000CD8026461C1A1FFA8EF3B4FBF8F008FB55
:10088000104443EA044300FB07F79F4208D91CEBDE
:10089000030300F1FF3402D29F4200F2B0802046F1
:1008A000DB1B40EA0640A5E7C1F120068B4022FA97
:1008B00006F71F4320FA06FC04FA01F343EA0C038F
:1008C000F44000FA01F8380C4FEA1349B4FBF0FE8B
:1008D0001FFA87FC00FB1E4449EA04440EFB0CF996
:1008E000A14502FA01F20AD93C190EF1FF3A80F053
:1008F0008480A14540F28180AEF1020E3C44A4EB1D
:1009000009041FFA83F9B4FBF0F300FB134449EA2E
:10091000044403FB0CFCA44507D93C1903F1FF3048
:1009200067D2A44565D9023B3C4443EA0E40A0FB94
:100930000293A4EB0C049C42CE469C4651D34ED06D
:1009400055B1B8EB0E0364EB0C0404FA06F6CB4089
:100950001E43CC40C5E90064002150E7C2F12003EA
:1009600020FA03F10CFA02FC24FA03F394400C433E
:100970004FEA1C4800FA02FE1FFA8CF7B3FBF8F0AE
:1009800008FB1031230C43EA014300FB07F19942B5
:1009900008D91CEB030300F1FF362CD299422AD967
:1009A000023863445B1AA4B2B3FBF8F108FB1133BD
:1009B00044EA034401FB07F3A34208D91CEB0404F7
:1009C00001F1FF3613D2A34211D902396444E41A6B
:1009D00041EA004139E70446F0E6084606E7C84523
:1009E000AED2B9EB020E63EB070C0138A8E7314633
:1009F000EDE7034699E73046D4E7D6467FE7634400
:100A000002384DE70646234608460FE7023E634498
:100A100030E700BF704700BF80B500AF024900203B
:100A20003FF080F800BF80BD5D55000880B483B002
:100A300000AF78604FF06043D3F8803E03F00103CD
:100A4000002B13D04FF06043D3F8003E03F00103B6
:100A5000002B0BD000E000BF4FF060431B68002B61
:100A6000F9D04FF060437A68D2B21A707B681846AA
:100A70000C37BD465DF8047B7047000080B400AFC2
:100A80008F4B1B88B3F57A7F59D18E4B1B78502B37
:100A900007D0502B00F30E81142B36D0282B1AD000
:100AA00008E1894B1B68894AA2FB03239B094FF489
:100AB0007A7202FB03F3844A1360834B1B6807EED0
:100AC000903AB8EE677ADFED826AC7EE267A814BFC
:100AD000C3ED007AEEE0804B1B687C4AA2FB032347
:100AE0009B094FF47A7202FB03F37B4A13607A4B43
:100AF0001B6807EE903AB8EE677ADFED756AC7EECD
:100B0000267A764BC3ED007AD4E0754B1B686F4AAA
:100B1000A2FB03239B094FF47A7202FB03F3704A92
:100B200013606F4B1B6807EE903AB8EE677ADFED03
:100B3000686AC7EE267A6B4BC3ED007ABAE0604B69
:100B40001B88642B56D15F4B1B78502B07D0502B42
:100B500000F3B080142B34D0282B19D0AAE05A4BC4
:100B60001B68614AA2FB03235B09642202FB03F3B7
:100B7000554A1360544B1B6807EE903AB8EE677AFB
:100B8000DFED536AC7EE267A524BC3ED007A91E04F
:100B9000514B1B68544AA2FB03235B09642202FBEE
:100BA00003F34D4A13604C4B1B6807EE903AB8EEC6
:100BB000677ADFED476AC7EE267A484BC3ED007AC5
:100BC00078E0474B1B68484AA2FB03235B09642279
:100BD00002FB03F3424A1360414B1B6807EE903A55
:100BE000B8EE677ADFED3A6AC7EE267A3D4BC3ED81
:100BF000007A5FE0324B1B880A2B5BD1314B1B78AC
:100C0000502B06D0502B55DC142B38D0282B1BD062
:100C100050E02D4B1B68354AA2FB0323DA0813462C
:100C20009B0013445B001A46274B1A60264B1B6837
:100C300007EE903AB8EE677ADFED256AC7EE267ABE
:100C4000244BC3ED007A35E0234B1B68274AA2FBF7
:100C50000323DA0813469B0013445B001A461E4B1D
:100C60001A601D4B1B6807EE903AB8EE677ADFED0D
:100C7000186AC7EE267A194BC3ED007A1AE0184BB2
:100C80001B681A4AA2FB0323DA0813469B0013448D
:100C90005B001A46124B1A60114B1B6807EE903A24
:100CA000B8EE677ADFED0A6AC7EE267A0D4BC3ED20
:100CB000007A00BF00BFBD465DF8047B704700BFEF
:100CC000200000241C00002410000024D34D6210DA
:100CD00000007A45040000241400002408000024C9
:100CE000180000240C0000241F85EB51CDCCCCCC87
:100CF00080B582B000AF78607B685A4A934240F07A
:100D0000AD80594B1B780133DAB2574B1A70564BF2
:100D10001B78022B40F0A280544B01221A70514BD9
:100D20001B681B6803F01003102B2ED1504B1B784F
:100D3000502B06D0502B1FDC142B14D0282B09D09D
:100D40001AE04C4B1B684C4A128892009B1A494A85
:100D5000136011E0494B1B68474A128892009B1AA6
:100D6000464A136008E0464B1B68434A12889200CB
:100D70009B1A434A136000BF424B01221A70424B38
:100D800001221A7000F08AF830E0394B1B78502BA2
:100D900006D0502B22DC142B16D0282B0AD01DE0B5
:100DA000354B1B889B001A46324B1B681344314A53
:100DB000136013E0304B1B889B001A462F4B1B68B7
:100DC00013442E4A136009E02B4B1B889B001A46E4
:100DD0002B4B1B6813442A4A136000BF294B012286
:100DE0001A70294B01221A7000F058F8204B1B781A
:100DF000502B06D0502B2EDC142B1ED0282B0ED0BF
:100E000029E01C4B1B6807EE903AB8EE677ADFEDDD
:100E10001F6AC7EE267A1E4BC3ED007A1BE0174B04
:100E20001B6807EE903AB8EE677ADFED186AC7EEF6
:100E3000267A184BC3ED007A0DE0114B1B6807EEC4
:100E4000903AB8EE677ADFED116AC7EE267A124B58
:100E5000C3ED007A00BF044B00221A7000BF0837B0
:100E6000BD4680BD78090024170B0024120B002416
:100E70001C00002410000024200000241400002482
:100E800018000024110B0024100B002400007A45E8
:100E900004000024080000240C00002480B582B067
:100EA00002AF1C4B1B78012B31D11B4B1B78502BF5
:100EB00006D0502B1CDC142B12D0282B08D017E0A6
:100EC000164B1B68164A1749184602F005F90FE041
:100ED000154B1B68124A1349184602F0FDF807E04B
:100EE000124B1B680E4A0F49184602F0F5F800BF76
:100EF000002300930A4B02220021002002F03EF85A
:100F00000849002001F0FFFF024B00221A7000BFC9
:100F1000BD4680BD110B00241C00002410000024DD
:100F2000FC0A0024F00A0024140000241800002405
:100F300080B586B000AF78607B683F4A93422BD182
:100F40000023FB820023BB821FE0BB8A03F0010366
:100F50009BB2002B09D1FB8A384A52F82320BB8A66
:100F600091B2374A22F813100CE0FB8A334A52F848
:100F700023301A0CBB8A91B2314A22F81310FB8A33
:100F80000133FB82BB8A0133BB82BB8AB3F5805F2E
:100F9000DBD32C4B00221A707B682B4A934242D140
:100FA0004FF400733B6112E0284A3B6952F823205A
:100FB0003B69A3F5007307EE902AF8EE677A244A9E
:100FC0009B001344C3ED007A3B6901333B613B69ED
:100FD000B3F5806FE8DB4FF400731E4A1C491E48CE
:100FE00055F05CF84FF40073FB6018E0FB68A3F564
:100FF0000073184A9B001344D3ED007AB7EEE77AEA
:101000009FED0B6B37EE067BFCEEC77B17EE901A5D
:10101000124AFB6842F82310FB680133FB60FB684F
:10102000B3F5806FE2DB00BF1837BD4680BD00BF5F
:10103000000000000000A040D4020024180B00248F
:10104000182B00241CEB0024B40300240000003003
:101050000020003000280030C8F5002400100030C7
:1010600080B584B000AF78607B68254A93423CD15C
:101070000023FB6010E0234AFB6852F8233007EEA0
:10108000903AF8EE677A204AFB689B001344C3ED60
:10109000007AFB680133FB60FB68B3F5007FEADB95
:1010A0004FF40073194A1849194854F0F7FF002308
:1010B000BB6016E0154ABB689B001344D3ED007A71
:1010C000B7EEE77A9FED0C6B37EE067BFCEEC77B45
:1010D00017EE901A0F4ABB6842F82310BB68013321
:1010E000BB60BB68B3F5007FE4DB00BF1037BD46D3
:1010F00080BD00BFAFF30080000000000000A040F2
:10110000B40300240000003000200030002800302C
:10111000C8F500240010003080B5ADF5805D86B0C4
:1011200000AF07F1180343F8140C564B1B8801332A
:101130009AB2544B1A80534B1B88322B40F09B8041
:1011400007F1180353F8143C1B6841F214023A44A7
:1011500013604FF0000341F20C023A441360012384
:1011600041F212023A4413802DE041F212033B4453
:101170001B889B0007F1180252F8142C1344D3ED7E
:10118000007A41F214033B4493ED007AB4EEE77A1F
:10119000F1EE10FA0ED541F212033B441B889B007E
:1011A00007F1180252F8142C13441B6841F2140280
:1011B0003A44136041F212033B441B88013341F26D
:1011C00012023A44138041F212033B441B88B3F5E8
:1011D000006FCAD3DFED2C6A41F214033B4493ED58
:1011E000007AC6EE877A41F20C033B44C3ED007AE5
:1011F000002341F210023A44138026E041F210032A
:101200003B441B8803F001039BB2002B0AD141F23F
:1012100010033B441B8807F118021344FF2203F814
:101220000C2C09E041F210033B441B8807F1180223
:1012300013440D2203F80C2C41F210033B441B888D
:10124000013341F210023A44138041F210033B444F
:101250001B88B3F5805FD1D30C4B03F5805303F1AA
:1012600018033B444FF480521946094839F0F6FF01
:10127000044B00221A8000BF07F580571837BD467F
:1012800080BD00BF54FF002400007F43F4EFFFFF48
:10129000C40900240000000080B586B002AF01F050
:1012A00037FD564B5B6903F40033002B1BD1BFF3B2
:1012B0004F8F00BFBFF36F8F00BF504B0022C3F8AA
:1012C0005022BFF34F8F00BFBFF36F8F00BF4B4B58
:1012D0005B694A4A43F400335361BFF34F8F00BF49
:1012E000BFF36F8F00E000BF444B5B6903F48033B2
:1012F000002B38D1414B0022C3F88420BFF34F8F1D
:1013000000BF3E4BD3F88030BB60BB685B0BC3F3C0
:101310000E037B60BB68DB08C3F309033B607B689B
:101320005A0143F6E07313403A6892073349134376
:10133000C1F860323B685A1E3A60002BEFD17B68DF
:101340005A1E7A60002BE5D1BFF34F8F00BF2B4BA5
:101350005B692A4A43F480335361BFF34F8F00BF68
:10136000BFF36F8F00E000BF2CF0DAF800F08EF9C9
:1013700000F0FEF900F0E8FF00F0A6FF00F0E0FB4F
:1013800000F0FEFC00F07EFD00F0FCFE00F036FCFC
:1013900000F074FC00F01CFA00F070FB00F04AFE54
:1013A00000F0ECFB00F098FA00F0F6FA00F096FE80
:1013B00000F086FB00F01EFE00F03AFF03F024FB75
:1013C00003F01BFB3C210E4839F002FA40F2FF7299
:1013D00000210C482EF0B2F940F2FF7200210A48B9
:1013E0002EF0ACF9094839F049F84FF40062084989
:1013F00004482EF007FA0023FB8131E000ED00E005
:1014000078090024D402002444030024E0080024C6
:10141000180B0024FB8907EE903AB8EEE77B9FEDAE
:101420006E6B27EE067B9FED6E5B87EE056BB0EE75
:10143000460B55F0CDFCB0EE407BB6EE006B27EED0
:10144000067BB6EE006B36EE477BFB89F7EEC77B7B
:10145000654A9B001344C3ED007AFB890133FB818D
:10146000FB89B3F5006FD5D3604B28221A705F4B10
:101470001A785F4B1A705F4B5F4A1A6001224FF473
:1014800080515E4832F0A4FB00224FF400515B48CB
:1014900032F09EFB00224FF48051594832F098FB05
:1014A00001222021574832F093FB00224FF4805153
:1014B000554832F08DFB0023184601F0ADFC4D4B32
:1014C0001B68524A5249184601F006FE0023009359
:1014D0004E4B02220021002001F050FD4C4900201B
:1014E00001F0D2FC012001F0B5FE4A4838F0C6FFF9
:1014F00040F2FF72002148482EF020F94FF480623C
:10150000464945482CF042FE002300934FF4806387
:10151000434A002143482EF0D5FD002300934FF4A9
:1015200080633F4A10213F482EF0CCFD3E4833F007
:101530005BFF4FF4007300933C4B3D4A61213D48F3
:1015400054F09AFD3BF012FE3B4A022101203CF090
:1015500023F80346394A1360394A042101203CF03C
:101560001BF80346374A1360374A40F254510120B2
:101570003CF012F80346354A1360354A00213548DD
:101580003BF03EFE0346344A1360344A002134489F
:101590003BF036FE0346334A1360334A002133489A
:1015A0003BF02EFE0346324A1360324A0021324895
:1015B0003BF026FE0346314A1360314A0021314890
:1015C0003BF01EFE0346304A13603BF0F3FD00BFC4
:1015D000FDE700BFAFF3008000000060FB21194071
:1015E0000000000000FC9F4018CB00241C000024D9
:1015F0001D0000241400002440C3AF010004025861
:101600000000025800180258001C0258FC0A00246E
:10161000F00A00242C090024B40300240000003048
:101620000010003038050024AC080024D4F5002454
:1016300024000024C8F5002494A20508E40A00242C
:10164000ACA20508E80A0024C4A20508EC0A00249C
:10165000E0A10508FD250008D00A002404A2050821
:10166000194A0008D40A002428A205080D260008FB
:10167000D80A00244CA2050869270008DC0A0024C7
:1016800070A2050829290008E00A002480B59CB052
:1016900000AF07F124034C220021184656F0BFFE8C
:1016A0003B1D20220021184656F0B9FE042035F0DB
:1016B000A5FA00233B602D4B9B692C4A23F4404341
:1016C00093612A4B9B6903F440433B603B6800BF36
:1016D000264B9B6903F40053B3F5005FF8D1032355
:1016E0007B624FF48033BB6201233B6340237B6307
:1016F0000223BB640223FB6402233B652C237B652E
:101700000123BB650223FB6502233B660C237B663A
:101710000023BB660023FB6607F12403184635F05F
:10172000C7FA0346002B01D001F06EFB3F237B601C
:101730000323BB600023FB6008233B6140237B61E4
:101740004023BB614FF48063FB6140233B623B1D40
:101750000321184635F086FE0346002B01D001F028
:1017600053FB00BF7037BD4680BD00BF0048025824
:1017700080B5AEB000AF3B46B8220021184656F007
:101780004EFE4FF002424FF00003C7E9002305234D
:10179000BB605023FB6002233B6102237B61022379
:1017A000BB618023FB6100233B6200237B6220231B
:1017B000FB6400237B653B46184636F021FA03465E
:1017C000002B01D001F020FB00BFB837BD4680BD23
:1017D00080B58CB000AF07F1240300221A605A6074
:1017E0009A603B4624220021184656F018FE374BDB
:1017F000374A1A60354B00225A60344B08229A60EF
:10180000324B00221A61314B04225A612F4B0022C5
:101810001A762E4B00225A762C4B0122DA612B4B82
:10182000002283F82020294B4FF4A4629A62274BB0
:101830004FF48062DA62254B01221A63234B4FF486
:101840008052DA63214B00221A64204B002283F875
:1018500044201E4B01229A641C482CF08FFA034648
:10186000002B01D001F0D0FA06237B624FF4004335
:10187000BB624FF44073FB6207F12403194613481F
:101880002EF0D2F80346002B01D001F0BDFA114B27
:101890003B6006237B600223BB6040F2FF73FB606A
:1018A00004233B6100237B61002387F821303B4602
:1018B000194606482CF094FF0346002B01D001F096
:1018C000A3FA00BF3037BD4680BD00BFD40200245C
:1018D000002002400200300480B58AB000AF3B1DFA
:1018E00024220021184656F09AFD294B294A1A60F5
:1018F000274B00225A60264B08229A60244B002274
:101900001A61234B04225A61214B00221A76204B84
:1019100000225A761E4B0122DA611D4B002283F809
:1019200020201B4B00221A63194B4FF48052DA63BC
:10193000174B00221A64164B002283F84420144BE4
:1019400001229A6412482CF019FA0346002B01D0A8
:1019500001F05AFA01237B600623BB600223FB607F
:1019600040F2FF733B6104237B610023BB610023D2
:1019700087F825303B1D194605482CF031FF0346FA
:10198000002B01D001F040FA00BF2837BD4680BDD2
:10199000440300240021024080B58AB000AF3B1D03
:1019A00024220021184656F03AFD324B324A1A6082
:1019B000304B00225A602F4B08229A602D4B002298
:1019C000DA602C4B00221A612A4B04225A61294BFF
:1019D00000221A76274B00225A76264B0122DA6122
:1019E000244B002283F82020224B4FF49C629A6201
:1019F000204B4FF48062DA621E4B012283F83820BC
:101A00001C4B00225A631B4B03221A63194B4FF4E1
:101A10008052DA63174B00221A64164B002283F8B7
:101A20004420144B00229A6412482CF0A7F9034674
:101A3000002B01D001F0E8F901237B600623BB6095
:101A40000023FB6040F2FF733B6104237B610023B2
:101A5000BB6100233B623B1D194606482CF0C0FECB
:101A60000346002B01D001F0CFF900BF2837BD4657
:101A700080BD00BFB40300240060025880B500AFF1
:101A80000D4B0E4A1A600C4B00221A710A4B0022B1
:101A90005A71094B00225A61074B00229A61064B8A
:101AA00001221A6204482EF0F9F90346002B01D0F6
:101AB00001F0AAF900BF80BD14050024004C0258B3
:101AC00080B58AB000AF3B1D24220021184656F095
:101AD000A6FC194B194A1A6017482EF0D1FA034692
:101AE000002B01D001F090F900237B601E23BB6026
:101AF0000223FB6002233B6100237B613B1D00222C
:101B000019460D482EF01CFC0346002B01D001F0B5
:101B10007BF90023FB6001233B613B1D102219462A
:101B200005482EF00DFC0346002B01D001F06CF9A6
:101B300000BF2837BD4680BD380500240074004032
:101B400080B500AF0B4B0C4A1A600A4B4FF4403281
:101B50005A60084B01229A60064B0022DA60054861
:101B600031F000FC0346002B01D001F04DF900BF1D
:101B700080BD00BF3C0600240010005280B500AFBD
:101B80001B4B1C4A1A601A4B1B4A5A60184B002206
:101B90009A60174B0122DA60154B00221A61144B30
:101BA00000225A61124B00229A61114B0022DA6125
:101BB0000F4B00221A620E4832F03EF80346002B0B
:101BC00001D001F021F90021094832F011FF03464C
:101BD000002B01D001F018F90021054832F053FF25
:101BE0000346002B01D001F00FF900BF80BD00BFFC
:101BF000A4060024005C0040724E406080B500AF37
:101C00001B4B1C4A1A601A4B1B4A5A60184B002285
:101C10009A60174B0122DA60154B00221A61144BAF
:101C200000225A61124B00229A61114B0022DA61A4
:101C30000F4B00221A620E4831F0FEFF0346002BC4
:101C400001D001F0E1F84FF48051094832F0D0FEA4
:101C50000346002B01D001F0D7F80021044832F0F0
:101C600012FF0346002B01D001F0CEF800BF80BD6B
:101C7000F8060024001C0058FFC8B02080B58EB0C4
:101C800000AF3B1D34220021184656F0C8FB3A4BEA
:101C90003A4A1A60384B00225A60374B00229A6049
:101CA000354B0022DA60344B00221A61324B072296
:101CB0005A61314B03229A612F4B0E22DA612E4B6F
:101CC00005221A622C4B40F28E225A622A4B40F2B5
:101CD000E5129A62284B4FF42572DA62264B40F2E5
:101CE000E7121A63244B002283F83420224B00228F
:101CF00083F83520204B002283F836201E4832F02E
:101D00000EFF0346002B01D001F07EF800237B601C
:101D10004FF4F073BB600023FB604FF488733B61AA
:101D200001237B61FF23BB610023FB614FF48063D0
:101D30003B6205237B624FF0E043BB624FF4F073DC
:101D4000FB624FF488733B63002387F83430002331
:101D500087F83530002387F836303B1D00221946BE
:101D6000054833F031F80346002B01D001F04CF860
:101D700000BF3837BD4680BD4C070024001000501E
:101D800080B588B000AF3B1D00221A605A609A608F
:101D9000DA601A615A61384B384A1A60364B0422AD
:101DA0005A60354B00229A60334B4FF08072DA60F4
:101DB000314B20221A61304B02225A612E4B0022F5
:101DC0009A612D4B0022DA612B4B00221A622A4BBA
:101DD00002225A62284B00229A62274B0022DA62C2
:101DE000254B00221A63244B08225A63224B0022FF
:101DF0009A63214B0022DA631F4833F027FB034626
:101E0000002B01D001F000F801237B600123BB60AF
:101E10000123FB604FF001133B61194B7B613B1DBC
:101E200041F288321946144833F090FF0346002BE4
:101E300001D000F0E9FF104833F0C4FB01233B77E9
:101E400001237B7700202AF03FFA07F11C03194693
:101E500000202AF09BF90346002B01D000F0D4FFAC
:101E600000202AF0C5FA0346002B01D000F0CCFF79
:101E700000BF2037BD4680BDF4070024005000524B
:101E80000100000180B592B000AF07F130030022DD
:101E90001A605A609A60DA601A615A6107F1200389
:101EA00000221A605A609A60DA6007F10C0300227F
:101EB0001A605A609A60DA601A613B1D00221A604B
:101EC0005A60484B484A1A60464B04225A60454BB8
:101ED00000229A60434B4FF08062DA60414B182237
:101EE0001A61404B04225A613E4B00229A613D4BDD
:101EF0000022DA613B4B00221A623A4B02225A62FC
:101F0000384B00229A62374B4FF08052DA62354BE1
:101F100017221A63334B00225A63324B00229A6312
:101F2000304B4FF4C872DA632E4833F08FFA034611
:101F3000002B01D000F068FF02233B6302237B6388
:101F40000223BB63294BFB63294B3B6407F130033E
:101F500041F288321946234833F0F8FE0346002B3D
:101F600001D000F051FF03233B6206237B62002374
:101F7000BB620123FB6207F1200341F2883219465C
:101F8000184833F0D3FB0346002B01D000F03CFF90
:101F90000023FB604FF440537B614FF00053FB6123
:101FA00000233B610123BB6107F10C0341F288323E
:101FB00019460C4833F0F9FB0346002B01D000F022
:101FC00023FF00237B603B1D1946064833F0ECFDE0
:101FD0000346002B01D000F017FF00BF4837BD4675
:101FE00080BD00BF5008002400A000520200010084
:101FF0000200000180B500AF0C4B0D4A1A600B4B7C
:1020000060229A60094B04221A61084B00225A6030
:10201000064B0022DA61054833F01EF90346002B17
:1020200001D000F0F1FE00BF80BD00BFAC0800246D
:102030000090004080B588B000AF07F11003002287
:102040001A605A609A60DA603B1D00221A605A607A
:102050009A60204B204A1A601E4B4FF489725A60D6
:102060001C4B00229A601B4B0922DA60194B00229C
:102070001A61184B00225A61164B80229A6115484A
:1020800038F0A4F90346002B01D000F0BDFE4FF458
:1020900080533B6107F1100319460E4838F04EFD9E
:1020A0000346002B01D000F0AFFE20237B6000230D
:1020B000BB600023FB603B1D1946064838F0C4FF97
:1020C0000346002B01D000F09FFE00BF2037BD4625
:1020D00080BD00BFE00800240000014080B588B04A
:1020E00000AF07F1100300221A605A609A60DA60AC
:1020F0003B1D00221A605A609A60204B204A1A60E9
:102100001E4B4FF489725A601C4B00229A601B4B85
:102110003122DA60194B00221A61184B00225A61F1
:10212000164B80229A61154838F050F90346002B6F
:1021300001D000F069FE4FF480533B6107F11003BA
:1021400019460E4838F0FAFC0346002B01D000F087
:102150005BFE20237B600023BB600023FB603B1DF4
:102160001946064838F070FF0346002B01D000F0F6
:102170004BFE00BF2037BD4680BD00BF2C090024A8
:102180000004014080B58CB000AF07F10C0324229D
:102190000021184656F043F93B4600221A605A6067
:1021A0009A60204B204A1A601E4B00225A601D4B39
:1021B00000229A601B4B1D4ADA601A4B00221A61FA
:1021C000184B00229A610323FB6000233B6101232B
:1021D0007B610023BB610A23FB6100233B62012377
:1021E0007B620023BB620A23FB6207F10C031946E2
:1021F0000C4838F047FA0346002B01D000F004FEEB
:1022000000233B600023BB603B461946054838F07D
:102210001BFF0346002B01D000F0F6FD00BF303756
:10222000BD4680BD7809002400E00040801A060009
:1022300080B500AF224B234A1A60214B4FF4E132A4
:102240005A601F4B00229A601D4B0022DA601C4B23
:1022500000221A611A4B08225A61194B00229A6116
:10226000174B0022DA61164B00221A62144B00222F
:102270005A62134B00229A62114838F09FFF0346BE
:10228000002B01D000F0C0FD00210D483AF05FFEA8
:102290000346002B01D000F0B7FD002108483AF0BA
:1022A00094FE0346002B01D000F0AEFD04483AF046
:1022B00015FE0346002B01D000F0A6FD00BF80BD37
:1022C000C4090024004C004080B582B000AF1D4B13
:1022D000D3F8D8301B4A43F00103C2F8D830194B69
:1022E000D3F8D83003F001037B607B68002205211E
:1022F0000B202DF033FD0B202DF04AFD002205218F
:102300000C202DF02BFD0C202DF042FD002205218C
:102310000D202DF023FD0D202DF03AFD002205218A
:102320000E202DF01BFD0E202DF032FD0022052188
:102330000F202DF013FD0F202DF02AFD00BF0837D0
:10234000BD4680BD0044025880B58EB000AF07F195
:10235000240300221A605A609A60DA601A61924B74
:10236000D3F8E030904A43F00203C2F8E0308E4BDD
:10237000D3F8E03003F002033B623B6A8A4BD3F8A8
:10238000E030894A43F04003C2F8E030864BD3F88E
:10239000E03003F04003FB61FB69834BD3F8E0308E
:1023A000814A43F00803C2F8E0307F4BD3F8E030B5
:1023B00003F00803BB61BB697B4BD3F8E0307A4A7A
:1023C00043F01003C2F8E030774BD3F8E03003F06D
:1023D00010037B617B69744BD3F8E030724A43F0A1
:1023E0008003C2F8E030704BD3F8E03003F0800394
:1023F0003B613B696C4BD3F8E0306B4A43F001031F
:10240000C2F8E030684BD3F8E03003F00103FB6022
:10241000FB68654BD3F8E030634A43F00403C2F82D
:10242000E030614BD3F8E03003F00403BB60BB68DD
:102430005D4BD3F8E0305C4A43F02003C2F8E03053
:10244000594BD3F8E03003F020037B607B68002217
:1024500044F20801554831F0BBFB002241F2010172
:10246000534831F0B5FB002248F23801514831F0B1
:10247000AFFB00224FF404414F4831F0A9FB00228A
:102480004FF470414D4831F0A3FB01224FF48051CD
:102490004B4831F09DFB44F208037B620123BB6291
:1024A0000023FB6200233B6307F1240319463F48E6
:1024B00031F0CCF84FF480537B620123BB620023E0
:1024C000FB6200233B6307F124031946384831F0CF
:1024D000BDF848F230037B620123BB620023FB623C
:1024E00000233B6307F124031946324831F0AEF86C
:1024F00008237B620123BB620023FB6203233B634F
:1025000007F1240319462B4831F0A0F84FF4044397
:102510007B620123BB620023FB6200233B6307F164
:1025200024031946244831F091F84FF440437B626C
:102530000123BB620023FB6203233B6307F12403F7
:1025400019461E4831F082F84FF440537B62012354
:10255000BB620023FB6200233B6307F1240319469F
:10256000164831F073F84FF480537B620123BB624D
:102570000023FB6200233B6307F124031946104844
:1025800031F064F801237B620123BB620023FB620C
:1025900003233B6307F124031946054831F056F83D
:1025A00000BF3837BD4680BD0044025800100258B5
:1025B0000000025800180258000C0258000402588B
:1025C000001C025880B586B000AFF860B9607A6030
:1025D00000237B6109E0BB685A1CBA601B7818466F
:1025E000FEF724FA7B6901337B617A697B689A4242
:1025F000F1DB7B6818461837BD4680BD80B582B0D8
:1026000000AF786032203AF08DFEFBE780B584B0F1
:1026100000AF7860484B00221A80484B1B78002B93
:102620001FD10023FB730FE0FB7BC3F1A803444AD7
:1026300052F823309AB2404B1B8813449AB23E4B57
:102640001A80FB7B0133FB73FB7B0E2BECD93A4BDF
:102650001B883C4AA2FB0323DB089AB2364B1A8044
:102660001DE00023BB730EE0BB7BAB33344A52F852
:1026700023309AB2304B1B8813449AB22E4B1A80E7
:10268000BB7B0133BB73BB7B0E2BEDD92A4B1B8865
:102690002C4AA2FB0323DB089AB2274B1A80264B55
:1026A0001A88294B1B889A4212D0284B1B6818465F
:1026B0003BF0A4F80346002B06D1244B18680023F6
:1026C00000221D493AF0DCFF1B4B1A881E4B1A8072
:1026D0001F4B1B78012B2BD11E4B1B6818463BF060
:1026E0008DF80346002B20D11B4B1B78502B06D1B5
:1026F000184B18680023002218493AF0C1FF164B06
:102700001B78282B06D1134B18680023002214498C
:102710003AF0B6FF104B1B78142B06D10D4B1868FE
:10272000002300220F493AF0ABFF094B00221A7038
:1027300064203AF0F7FD6DE718EB0024140B002439
:1027400020EB0024898888881AEB0024E40A0024FE
:10275000120B0024E80A00241C00002404000024BA
:10276000080000240C00002480B582B000AF78601F
:102770005E4B1B78002B0BD1012220215C4831F0ED
:1027800027FA00224FF480515A4831F021FA0AE02A
:1027900000222021564831F01BFA01224FF48051CB
:1027A000544831F015FA544B1A78544B1B789A421E
:1027B00014D0514B1B78002B06D100224FF48051CE
:1027C0004F4831F005FA05E001224FF480514C48A2
:1027D00031F0FEF9484B1A78484B1A70494B1A7879
:1027E000494B1B789A421ED0474B1B78142B1AD1A9
:1027F00000224FF48051454831F0EAF901224FF4AC
:102800000051424831F0E4F9414B01221A70414B2A
:1028100001221A70404B01221A703B4B1A78394B37
:102820001A70FEF73BFB374B1A78374B1B789A42EE
:102830001ED0354B1B78282B1AD101224FF4805122
:10284000324831F0C5F900224FF400512F4831F0E1
:10285000BFF92F4B01221A702E4B01221A702E4BFA
:1028600001221A70284B1A78264B1A70FEF716FBB5
:10287000244B1A78244B1B789A421ED0224B1B788B
:10288000502B1AD100224FF48051204831F0A0F98A
:1028900000224FF400511D4831F09AF91C4B0122DF
:1028A0001A701C4B01221A701B4B01221A70164B16
:1028B0001A78144B1A70FEF7F1FA184B1A88184B55
:1028C0001B889A420ED0FEF7D9F8114B01221A70DC
:1028D000104B01221A70104B01221A70104B1A88EB
:1028E0000E4B1A8064203AF01DFD41E7130B0024C3
:1028F00000180258001C0258140B0024150B002469
:10290000000002581D0000241C000024000402588E
:10291000120B0024100B0024110B002422000024B1
:10292000200000240000000080B588B000AF78606F
:10293000A14B1B78002B40F0D481A04B1B78012BBE
:1029400040F0CF810023FB830023BB832CE0BB8BB3
:1029500003F001039BB2002B05D1BB8B002B02D0EF
:10296000FB8B0133FB83BB8B954A32F8133007EEA8
:10297000903AB8EEE77B9FED8E6B27EE066BFB8BF4
:10298000904A9B001344D3ED007AB7EEE77A26EE27
:10299000077BBB8BF7EEC77B8B4A9B001344C3EDD1
:1029A000007ABB8B0133BB83BB8BB3F5805FCED387
:1029B000012300228449854853F0C0FA4FF4006295
:1029C0008349814853F0EEFD8148FEF7A5FB804B1B
:1029D0004FF000025A607E4B03F5805303F6FC7300
:1029E0004FF000021A607A4B03F5805303F6F87338
:1029F0004FF000021A6000237B830EE07B8B03F50F
:102A000080627B8B724992000A44126871499B0074
:102A10000B441A607B8B01337B837B8BB3F5806F18
:102A2000ECD34FF480633B830EE03B8BA3F58062D5
:102A30003B8B674992000A44126866499B000B442D
:102A40001A603B8B01333B833B8BB3F5006FECD3B8
:102A50000023FB82604B1B78002B56D10023BB82E6
:102A60004FE0BB8A5B4A9B00134493ED007ABB8A1C
:102A70000133584A9B001344D3ED007A37EE277A8E
:102A8000BB8A0233534A9B001344D3ED007A37EEDE
:102A9000277ABB8A03334F4A9B001344D3ED007A55
:102AA00037EE277ABB8A04334A4A9B001344D3ED9E
:102AB000007A37EE277ABB8A0533464A9B001344D7
:102AC000D3ED007A37EE277AF1EE086AC7EE267A60
:102AD000FB8AFDEEE77A17EE901A404A42F823107F
:102AE000FB8A3E4A52F82330322B04DDFB8A3B4AF4
:102AF000322142F82310FB8A0133FB82BB8A063362
:102B0000BB82BB8AB3F5006FABD3334B1B78012B71
:102B100046D14FF4AB737B823DE07B8A2D4A9B000C
:102B2000134493ED007A7B8A01332A4A9B001344B5
:102B3000D3ED007A37EE277A7B8A0233254A9B0051
:102B40001344D3ED007A37EE277A7B8A0333214A88
:102B50009B001344D3ED007A37EE277AF1EE006A3A
:102B6000C7EE267AFB8AFDEEE77A17EE901A1B4A2B
:102B700042F82310FB8A194A52F82330322B04DD25
:102B8000FB8A164A322142F82310FB8A0133FB826A
:102B90007B8A04337B827B8A40F2AA629342BCD94F
:102BA0000D4B1B78022B4CD140F2AB233B8243E010
:102BB000FCA9F1D24D62503F1CEB00241E00002402
:102BC000182B002418CB0024184B002424C305081C
:102BD000188B002418AB0024160B002420EB0024D3
:102BE0003B8A424A9B00134493ED007A3B8A0133AF
:102BF0003E4A9B001344D3ED007A37EE277AF0EE7D
:102C0000006AC7EE267AFB8AFDEEE77A17EE901A85
:102C1000374A42F82310FB8A354A52F82330322BC8
:102C200004DDFB8A324A322142F82310FB8A013349
:102C3000FB823B8A02333B823B8A40F255529342ED
:102C4000CED92C4B1B78032B27D140F25633FB8176
:102C50001EE0FB89254A9B001344D3ED007AFB8AD2
:102C6000FDEEE77A17EE901A214A42F82310FB8A0C
:102C70001F4A52F82330322B04DDFB8A1C4A3221D2
:102C800042F82310FB8A0133FB82FB890133FB816D
:102C9000FB8940F2AB429342DBD9174A144B1046F2
:102CA000194640F254531A4655F0DFFC134B1B688B
:102CB00018463AF0A3FD0346002B06D10F4B1868C7
:102CC000002300220C493AF0DBFC4FF400620C496F
:102CD0000C482CF097FD0C4B01221A700B4B002274
:102CE0001A701E203AF01EFB22E600BF18AB00242B
:102CF00020EB0024160B002474F00024EC0A0024BE
:102D0000180B0024D40200241CEB00241E00002415
:102D100080B584B000AF3B4600221A605A609A60CA
:102D2000DA602DF043F801233B7000237B704FF0F5
:102D300010537B6012233B7200237B720023BB7213
:102D40000323FB7201233B7300237B730123BB73BB
:102D50000123FB733B4618462DF060F801237B707E
:102D60004FF0E0437B601C233B720023FB72002387
:102D7000BB730023FB733B4618462DF04FF802232C
:102D80007B7016233B720323FB720123BB73012369
:102D9000FB733B4618462DF041F803237B704FF040
:102DA00010437B601C233B720023FB720023BB7328
:102DB0000023FB733B4618462DF030F804237B704C
:102DC00019233B720323FB720123BB733B46184656
:102DD0002DF024F804202DF001F800BF1037BD4677
:102DE00080BD000080B582B000AF78607B681B6852
:102DF000044A934201D12AF0CFFB00BF0837BD46F9
:102E000080BD00BF0010004080B400AF00BFBD46D1
:102E10005DF8047B7047000080B584B000AF786037
:102E2000184A7B681360FF21032000F023FA8021F9
:102E3000102000F01FFA8021112000F01BFA8021E1
:102E4000122000F017FA8021132000F013FA8021DD
:102E5000142000F00FFA8021152000F00BFA8021D9
:102E6000162000F007FA8021172000F003FA8023D3
:102E7000FB73FB7B1946B72000F0FCF900BF10374D
:102E8000BD4680BD60FF002480B58CB002AF034614
:102E90003960FB713B681B687B623B685B683B6227
:102EA0003B689B68FB617B6ADA013B6AD901FB697D
:102EB00091FBF3F31344A3F50073BB613B6ADB01A1
:102EC000FA6993FBF2F2F96901FB02F29B1A7B614A
:102ED000FB693B61FB79002B01D11A2300E022231F
:102EE000FB73F87B00230193002300933B697A690D
:102EF000B96900F0E5F9A021B12000F0BBF900BFED
:102F00002837BD4680BD80B58CB002AF034639601E
:102F1000FB713B681B687B623B685B683B623B689C
:102F20009B68FB617B6ADA013B6AD901FB6991FB13
:102F3000F3F31344A3F50073BB613B6ADB01FA6949
:102F400093FBF2F2F96901FB02F29B1A7B61FB69C8
:102F50003B61FB79002B01D11A2300E02223FB7394
:102F6000F87B00230193002300933B697A69B969D8
:102F700000F0A6F900BF2837BD4680BD80B58CB0F3
:102F800002AF3B600346FB710B46BB7113467B717E
:102F90003B685B683B613B689B68FB603B68DB6848
:102FA000BB60002387F82730FB79022B01D901236E
:102FB0008DE03B681B78002B0AD13B69072B05DDB0
:102FC0003B69082B04D1FB68002B01D102237EE072
:102FD0003B69042B09D100233B620023FB610123E1
:102FE000BB61032387F8273016E03B69DA01FB68F1
:102FF000D901BB6891FBF3F31344A3F500733B6263
:10300000FB68DB01BA6893FBF2F2B96801FB02F2DC
:103010009B1AFB61BB68BB610023FB750023BB757A
:1030200000237B75FB79022B14D0022B19DC002BBB
:1030300002D0012B07D014E02A23FB75A523BB7512
:1030400010237B750DE03223FB75A623BB7511237E
:103050007B7506E03A23FB75A723BB7512237B75AE
:1030600000BF7B7943F00C033B75BB79012B03D187
:103070003B7D43F020033B753B681B78002B09D058
:10308000FB68002B02D03B69042B03D13B7D43F04E
:1030900040033B753A7D7B7D1146184600F0EAF807
:1030A0003B681B7CF87D019397F827300093BB6940
:1030B000FA69396A00F004F997F8303003F07F03B9
:1030C000DAB2BB7D1146184600F0D4F8002318464A
:1030D0002837BD4680BD000080B48FB000AFF860D7
:1030E000B9607A60FB68B3F5FA5F03D24FF4FA5324
:1030F000FB6005E0FB684D4A934201D94B4BFB60F6
:103100007B6801221A70FB68494A934206D8FB6823
:103110009B01FB607B6806221A7402E07B68002238
:103120001A74FB68434AA2FB03239B0C424A1268B1
:1031300002FB03F3414AA2FB03235B09FA68D31A9B
:10314000FB603F4BFB61FB683E4A934222D824233D
:103150007B6300233B630123FB623B4B3B613A698A
:10316000FB68B2FBF3F3BB62FB681B0D01337B61B1
:103170003B69FA68B3FBF2F2F96801FB02F29A1AB2
:103180007B69B2FBF3F37B627B69FA68B2FBF3F312
:103190003B6232E0FB682D4A934202D90423BB62B2
:1031A00008E0FB682A4A934202D90623BB6201E089
:1031B0000823BB6200237B6201233B62BB6AFA687F
:1031C00002FB03F3BB61BA69FB6992FBF3F37B6318
:1031D000FB691B1501337B61BB69FA6993FBF2F252
:1031E000F96901FB02F29A1A7B6992FBF3F33B63E4
:1031F000FA697B6992FBF3F3FB62BB687A6B1A6036
:10320000BB683A6B5A60BB68FA6A9A607B68BA6AB4
:103210005A607B687A6A9A607B683A6ADA6000BFB3
:103220003C37BD465DF8047B704700BF00688909E4
:103230003F420F0083DE1B4360FF00241F85EB51DC
:1032400040787D013FF6D30400E9A4357FD1F00832
:10325000FFE0F50580B582B000AF0346FB71FB7956
:10326000DB43DBB21946032000F004F800BF083747
:10327000BD4680BD80B586B004AF03460A46FB71EB
:103280001346BB7100BF25230322C0210B4830F039
:10329000CDFF0346002BF6D1FB799AB2252302938A
:1032A00001230193BB1D00930123C021034830F08B
:1032B0008FFD00BF0837BD4680BD00BFA4060024B7
:1032C00080B588B004AFB9607A603B600346FB7399
:1032D0003B681B12DAB2294B1A703B68DAB2274BF3
:1032E0005A70BB681B145BB203F003035AB23B7EF7
:1032F0009B005BB203F00C035BB213435AB23B7FFB
:103300001B015BB203F070035BB213435BB2DAB232
:103310001A4B9A70BB681B12DAB2184BDA70BB6892
:10332000DAB2164B1A713B681B135BB223F00F0322
:103330005AB27B681B145BB203F00F035BB21343FA
:103340005BB2DAB20D4B5A717B681B12DAB20B4BCF
:103350009A717B68DAB2094BDA71FB7B9AB225234A
:10336000029308230193054B00930123C0210448D5
:1033700030F02EFD00BF1037BD4680BD58FF002441
:10338000A406002480B582B000AF184BD3F8F43007
:10339000164A43F00203C2F8F430144BD3F8F43069
:1033A00003F002037B607B6800220F216FF00100B5
:1033B0002CF0D4FC0D4BD3F8F4300C4A43F400430A
:1033C000C2F8F430094BD3F8F43003F400433B6007
:1033D0003B6800202AF024F92AF04AF900202AF05C
:1033E00033F900BF0837BD4680BD00BF0044025816
:1033F00080B5B6B000AF786007F12003B822002195
:10340000184655F00CF87B681B689E4A934278D1A9
:103410004FF400224FF00003C7E908234FF40033B4
:10342000C7F8C03007F12003184634F0E9FB034623
:10343000002B01D0FFF7E8FC934B1B680133924A45
:103440001360914B1B68012B0ED1904BD3F8D830F1
:103450008E4A43F02003C2F8D8308C4BD3F8D830D2
:1034600003F02003FB61FB69884BD3F8E030874A07
:1034700043F00103C2F8E030844BD3F8E03003F0AE
:103480000103BB61BB694FF000714FF000702AF07F
:1034900013F97F4B7F4A1A607D4B09225A607C4B9F
:1034A00000229A607A4B0022DA60794B4FF48062F6
:1034B0001A61774B4FF480525A61754B4FF480423A
:1034C0009A61734B0022DA61714B00221A62704BD1
:1034D00000225A626E482DF00DF90346002B01D0F0
:1034E000FFF792FC7B686A4A9A65694A7B68936336
:1034F0000022052112202CF031FC12202CF048FC77
:10350000BBE07B681B68644A934249D14FF40022B8
:103510004FF00003C7E908234FF40033C7F8C03069
:1035200007F12003184634F06BFB0346002B01D053
:10353000FFF76AFC544B1B680133534A1360524B2C
:103540001B68012B0ED1514BD3F8D8304F4A43F0B2
:103550002003C2F8D8304D4BD3F8D83003F0200305
:103560007B617B69494BD3F8E030484A43F0010363
:10357000C2F8E030454BD3F8E03003F001033B6183
:103580003B694FF080714FF080702AF095F800226F
:10359000052112202CF0E2FB12202CF0F9FB6CE04C
:1035A0007B681B683D4A934267D14FF400224FF07D
:1035B0000003C7E908234FF40033C7F8C03007F110
:1035C0002003184634F01CFB0346002B01D0FFF704
:1035D0001BFC2E4BD3F8E0302C4A43F08073C2F82A
:1035E000E0302A4BD3F8E03003F08073FB60FB68D7
:1035F000264BD3F8E030254A43F00403C2F8E0300C
:10360000224BD3F8E03003F00403BB60BB684FF0FB
:1036100080614FF080602AF04FF8214B214A1A60F8
:103620001F4B73225A601E4B00229A601C4B0022D3
:10363000DA601B4B4FF480621A61194B4FF48052D1
:103640005A61174B4FF480429A61154B4FF48072C8
:10365000DA61134B00221A62114B00225A621048A1
:103660002DF048F80346002B01D0FFF7CDFB7B6817
:103670000B4A9A650A4A7B68936300BFD837BD46F8
:1036800080BD00BF0020024064FF002400440258B7
:10369000240400241000024000210240006002586F
:1036A0009C0400242800024080B485B000AF7860FC
:1036B0007B681B680B4A93420ED10B4BD3F8E0306A
:1036C000094A43F40023C2F8E030074BD3F8E03056
:1036D00003F40023FB60FB6800BF1437BD465DF8B0
:1036E000047B7047004C02580044025880B58AB0F1
:1036F00000AF786007F1140300221A605A609A60E4
:10370000DA601A617B681B684C4A934240F09280F1
:103710004B4BD3F8E8304A4A43F00053C2F8E83044
:10372000474BD3F8E83003F000533B613B69444B0F
:10373000D3F8E030424A43F00103C2F8E030404B96
:10374000D3F8E03003F00103FB60FB6820237B61CA
:103750000323BB610023FB6107F1140319463948B9
:103760002FF074FF384B394A1A60374B44225A60A5
:10377000354B40229A60344B0022DA60324B4FF4D2
:1037800080621A61304B4FF480525A612E4B4FF4D5
:1037900080429A612C4B4FF48072DA612A4B0022EE
:1037A0001A62294B00225A6227482CF0A3FF0346D5
:1037B000002B01D0FFF728FB7B68234ADA60224AFE
:1037C0007B689363224B234A1A60214B43225A6041
:1037D0001F4B40229A601E4B0022DA601C4B4FF4B4
:1037E00080621A611A4B4FF480525A61184B4FF4A1
:1037F00080429A61164B4FF48072DA61144B0022BA
:103800001A62134B00225A6211482CF073FF0346D0
:10381000002B01D0FFF7F8FA7B680D4A9A600C4A3A
:103820007B6893630022052136202CF097FA36201E
:103830002CF0AEFA00BF2837BD4680BD00740040B2
:1038400000440258000002584C0500244000024089
:10385000C40500245800024080B584B000AF7860F1
:103860007B681B680E4A934216D10E4BD3F8D430B6
:103870000C4A43F01003C2F8D4300A4BD3F8D430CA
:1038800003F01003FB60FB68002205215A202CF096
:1038900065FA5A202CF07CFA00BF1037BD4680BD77
:1038A000001000520044025880B5BCB000AF7860F0
:1038B00007F1DC0300221A605A609A60DA601A612C
:1038C00007F12003B8220021184654F0A8FD7B68B8
:1038D0001B685F4A93426BD14FF008024FF0000320
:1038E000C7E908230023C7F8A03007F120031846D2
:1038F00034F086F90346002B01D0FFF785FA554BCB
:10390000D3F8E030534A43F00403C2F8E030514B9F
:10391000D3F8E03003F00403FB61FB694D4BD3F8AF
:10392000E0304C4A43F08003C2F8E030494BD3F812
:10393000E03003F08003BB61BB694FF40073C7F84C
:10394000DC301223C7F8E0300023C7F8E43000234E
:10395000C7F8E8300423C7F8EC3007F1DC03194658
:103960003D482FF073FE8023C7F8DC301223C7F8E0
:10397000E0300023C7F8E4300023C7F8E830042320
:10398000C7F8EC3007F1DC03194634482FF05EFE2F
:10399000304BD3F8E8302F4A43F40003C2F8E83044
:1039A0002C4BD3F8E83003F400037B617B694BE0D8
:1039B0007B681B682A4A934246D14FF010024FF0B1
:1039C0000003C7E908230023C7F8B43007F1200338
:1039D000184634F015F90346002B01D0FFF714FA0E
:1039E0001C4BD3F8E0301B4A43F02003C2F8E03010
:1039F000184BD3F8E03003F020033B613B694FF4F0
:103A00004043C7F8DC301223C7F8E0300023C7F882
:103A1000E4300023C7F8E8300423C7F8EC3007F19E
:103A2000DC0319460F482FF011FE0A4BD3F8F4308F
:103A3000084A43F08003C2F8F430064BD3F8F43060
:103A400003F08003FB60FB6800BFF037BD4680BD1C
:103A5000005C00400044025800080258001C025854
:103A6000001C00580014025880B582B000AF786086
:103A70007B681B68174A934211D1174BD3F8E83083
:103A8000154A23F40003C2F8E8304FF400711348DC
:103A90002FF084FF802112482FF080FF16E07B6812
:103AA0001B68104A934211D10B4BD3F8F4300A4AE9
:103AB00023F08003C2F8F4304FF400410A482FF09D
:103AC0006DFF4FF4804108482FF068FF00BF0837B2
:103AD000BD4680BD005C004000440258000802580A
:103AE000001C0258001C00580014025880B5BEB0DB
:103AF00000AF786007F1E40300221A605A609A6010
:103B0000DA601A6107F12803B8220021184654F040
:103B100086FC7B681B68DE4A934240F0CE814FF002
:103B200000524FF00003C7E90A2319233B654FF405
:103B300090737B650223BB650223FB651E233B66F6
:103B400000237B664FF40073BB660023FB6607F11E
:103B50002803184634F054F80346002B01D0FFF731
:103B600053F9CC4BD3F8E430CA4A43F00803C2F807
:103B7000E430C84BD3F8E43003F008037B627B6A7F
:103B8000C44BD3F8E030C34A43F00203C2F8E0303C
:103B9000C04BD3F8E03003F002033B623B6ABD4BFD
:103BA000D3F8E030BB4A43F00803C2F8E030B94B29
:103BB000D3F8E03003F00803FB61FB69B54BD3F8A1
:103BC000E030B44A43F00103C2F8E030B14BD3F81F
:103BD000E03003F00103BB61BB69AE4BD3F8E030CA
:103BE000AC4A43F01003C2F8E030AA4BD3F8E030FF
:103BF00003F010037B617B69A64BD3F8E030A54A44
:103C000043F04003C2F8E030A24BD3F8E03003F0B9
:103C100040033B613B699F4BD3F8E0309D4A43F042
:103C20008003C2F8E0309B4BD3F8E03003F0800310
:103C3000FB60FB68974BD3F8E030964A43F00403EF
:103C4000C2F8E030934BD3F8E03003F00403BB60DC
:103C5000BB684FF48073C7F8E4300223C7F8E8303C
:103C60000023C7F8EC300023C7F8F0300E23C7F864
:103C7000F43007F1E403194687482FF0E7FC0923E5
:103C8000C7F8E4300223C7F8E8300023C7F8EC3067
:103C90000023C7F8F0300E23C7F8F43007F1E4032F
:103CA00019467E482FF0D2FC40F20323C7F8E430D7
:103CB0000223C7F8E8300023C7F8EC300323C7F825
:103CC000F0300E23C7F8F43007F1E40319467248C8
:103CD0002FF0BCFC4FF48073C7F8E4300223C7F820
:103CE000E8300023C7F8EC300323C7F8F0300D2389
:103CF000C7F8F43007F1E403194669482FF0A6FC31
:103D00004BF60203C7F8E4300223C7F8E83000237B
:103D1000C7F8EC300323C7F8F0300E23C7F8F430AF
:103D200007F1E40319465F482FF090FC4FF48043FD
:103D3000C7F8E4300223C7F8E8300023C7F8EC30B6
:103D40000323C7F8F0300E23C7F8F43007F1E4037B
:103D5000194655482FF07AFC4023C7F8E430022377
:103D6000C7F8E8300023C7F8EC300323C7F8F03079
:103D70000E23C7F8F43007F1E403194647482FF043
:103D800065FC48F20403C7F8E4300223C7F8E830C2
:103D90000023C7F8EC300023C7F8F0300E23C7F833
:103DA000F43007F1E403194640482FF04FFCC023DC
:103DB000C7F8E4300223C7F8E8300023C7F8EC3036
:103DC0000023C7F8F0300E23C7F8F43007F1E403FE
:103DD000194637482FF03AFC8023C7F8E430022315
:103DE000C7F8E8300023C7F8EC300023C7F8F030FC
:103DF0000E23C7F8F43007F1E40319462A482FF0E0
:103E000025FC40F60873C7F8E4300223C7F8E83011
:103E10000023C7F8EC300323C7F8F0300E23C7F8AF
:103E2000F43007F1E403194620482FF00FFC582323
:103E3000C7F8E4300223C7F8E8300023C7F8EC30B5
:103E40000323C7F8F0300E23C7F8F43007F1E4037A
:103E5000194613482FF0FAFB1023C7F8E430022369
:103E6000C7F8E8300023C7F8EC300323C7F8F03078
:103E70000923C7F8F43007F1E40319460B482FF083
:103E8000E5FB0022052158202BF068FF12E000BF5F
:103E9000001000500044025800040258000C025860
:103EA000000002580010025800180258001C025866
:103EB0000008025858202BF06BFF00BFF837BD46B2
:103EC00080BD00BF80B592B000AF786007F13403C9
:103ED00000221A605A609A60DA601A617B681B6877
:103EE000B54A934240F0E680B44B1B680133B34AB5
:103EF0001360B24B1B68012B0ED1B14BD3F8D430F9
:103F0000AF4A43F40013C2F8D430AD4BD3F8D430E9
:103F100003F400133B633B6BA94BD3F8D430A84A9E
:103F200043F48043C2F8D430A54BD3F8D43003F423
:103F30008043FB62FB6AA24BD3F8E030A04A43F017
:103F40004003C2F8E0309E4BD3F8E03003F040036A
:103F5000BB62BB6A9A4BD3F8E030994A43F008033E
:103F6000C2F8E030964BD3F8E03003F008037B62F0
:103F70007B6A934BD3F8E030914A43F01003C2F8C8
:103F8000E0308F4BD3F8E03003F010033B623B6A24
:103F90008B4BD3F8E0308A4A43F02003C2F8E0307C
:103FA000874BD3F8E03003F02003FB61FB69844BBF
:103FB000D3F8E030824A43F00203C2F8E030804B8D
:103FC000D3F8E03003F00203BB61BB694FF4007328
:103FD0007B630223BB630023FB6303233B6409234E
:103FE0007B6407F13403194676482FF02FFBB0238A
:103FF0007B630223BB630023FB6303233B640A232D
:104000007B6407F1340319466F482FF01FFB04232C
:104010007B630223BB630023FB6303233B6409230D
:104020007B6407F13403194668482FF00FFB4023E7
:104030007B630223BB630023FB6303233B640A23EC
:104040007B6407F1340319465E482FF0FFFA4FF402
:1040500060537B630223BB630023FB6303233B6446
:1040600009237B6407F13403194657482FF0EEFA11
:104070004FF480637B630223BB630023FB63032352
:104080003B6409237B6407F13403194650482FF041
:10409000DDFA04237B630223BB630023FB6303235A
:1040A0003B640A237B6407F13403194649482FF027
:1040B000CDFA7CE07B681B68474A934277D13F4B3F
:1040C0001B6801333D4A13603C4B1B68012B0ED12A
:1040D0003B4BD3F8D4303A4A43F40013C2F8D430FF
:1040E000374BD3F8D43003F400137B617B69344B36
:1040F000D3F8D430324A43F40023C2F8D430304BE2
:10410000D3F8D43003F400233B613B692C4BD3F844
:10411000E0302B4A43F04003C2F8E030284BD3F89C
:10412000E03003F04003FB60FB68254BD3F8E03040
:10413000234A43F02003C2F8E030214BD3F8E030AB
:1041400003F02003BB60BB6840F603037B630223DC
:10415000BB630023FB6303233B6409237B6407F1F8
:104160003403194617482FF071FA4FF4A0537B63BC
:104170000223BB630023FB6303233B6403237B64B1
:1041800007F1340319460F482FF060FA41F21F037C
:104190007B630223BB630023FB6303233B6409238C
:1041A0007B6407F13403194609482FF04FFA00BF2A
:1041B0004837BD4680BD00BF0050005268FF002454
:1041C0000044025800180258000C0258001002580F
:1041D000001402580004025800A0005280B582B0BA
:1041E00000AF78607B681B682F4A934230D12F4B19
:1041F0001B68013B2D4A13602C4B1B68002B07D119
:104200002B4BD3F8D4302A4A23F40013C2F8D4300D
:10421000274BD3F8D430264A23F48043C2F8D43055
:104220004FF4107123482FF0B9FB43F6B001224838
:104230002FF0B4FB042121482FF0B0FB4FF4806134
:104240001F482FF0ABFB04211E482FF0A7FB27E0EF
:104250007B681B681C4A934222D1144B1B68013BAC
:10426000124A1360114B1B68002B07D1104BD3F877
:10427000D4300F4A23F40013C2F8D4300C4BD3F8D7
:10428000D4300B4A23F40023C2F8D43041F6034162
:1042900008482FF083FB41F21F0109482FF07EFBF5
:1042A00000BF0837BD4680BD0050005268FF0024A3
:1042B0000044025800180258000C0258001002581E
:1042C000001402580004025800A0005280B58AB0C1
:1042D00000AF786007F1140300221A605A609A60F8
:1042E000DA601A617B681B68184A934229D1184B1F
:1042F000D3F8EC30164A43F01003C2F8EC30144BFC
:10430000D3F8EC3003F010033B613B69104BD3F85A
:10431000E0300F4A43F00403C2F8E0300C4BD3F80E
:10432000E03003F00403FB60FB6810237B61032390
:10433000BB610023FB6107F11403194605482FF008
:1043400085F900BF2837BD4680BD00BF0090004002
:10435000004402580008025880B485B000AF78606D
:104360007B681B68164A93420FD1164BD3F8F03086
:10437000144A43F00103C2F8F030124BD3F8F03086
:1043800003F00103FB60FB6813E07B681B680E4AC7
:1043900093420ED10B4BD3F8F0300A4A43F002039C
:1043A000C2F8F030074BD3F8F03003F00203BB60E3
:1043B000BB6800BF1437BD465DF8047B704700BF83
:1043C00000000140004402580004014080B58AB05A
:1043D00000AF786007F1140300221A605A609A60F7
:1043E000DA601A617B681B682E4A934255D12E4BC6
:1043F000D3F8EC302C4A43F08073C2F8EC302A4BEF
:10440000D3F8EC3003F080733B613B69264BD3F863
:10441000E030254A43F04003C2F8E030224BD3F8A5
:10442000E03003F04003FB60FB681F4BD3F8E03043
:104430001D4A43F02003C2F8E0301B4BD3F8E030B4
:1044400003F02003BB60BB684FF400537B61022381
:10445000BB610023FB6102233B620D237B6207F1FA
:104460001403194611482FF0F1F840237B61022311
:10447000BB610023FB6100233B620D237B6207F1DC
:10448000140319460A482FF0E1F800220521A12063
:104490002BF064FCA1202BF07BFC00BF2837BD462D
:1044A00080BD00BF00E000400044025800180258E0
:1044B0000014025880B5BAB000AF786007F1D40399
:1044C00000221A605A609A60DA601A6107F11803D4
:1044D000B8220021184653F0A2FF7B681B68544A9B
:1044E000934240F0A0804FF002024FF00003C7E972
:1044F00006230023C7F88C3007F11803184633F061
:104500007FFB0346002B01D0FEF77EFC494BD3F81E
:10451000E830484A43F40023C2F8E830454BD3F86A
:10452000E83003F400237B617B69424BD3F8E03031
:10453000404A43F00803C2F8E0303E4BD3F8E03085
:1045400003F008033B613B693A4BD3F8E030394A4A
:1045500043F08003C2F8E030364BD3F8E03003F08C
:104560008003FB60FB680223C7F8D4300223C7F83E
:10457000D8300023C7F8DC300023C7F8E030082328
:10458000C7F8E43007F1D40319462B482FF05EF842
:104590004FF48043C7F8D4300223C7F8D830002343
:1045A000C7F8DC300023C7F8E0300823C7F8E43050
:1045B00007F1D403194621482FF048F8204B214A2F
:1045C0001A601F4B40225A601D4B40229A601C4BC0
:1045D0000022DA601A4B4FF480621A61184B0022F5
:1045E0005A61174B00229A61154B0022DA61144B75
:1045F00000221A62124B00225A6211482CF07AF8FB
:104600000346002B01D0FEF7FFFB7B680C4ADA67FC
:104610000B4A7B6893630022052134202BF09EFB1C
:1046200034202BF0B5FB00BFE837BD4680BD00BF8E
:10463000004C004000440258000C0258001C025874
:10464000580A00247000024080B590B000AF786036
:104650007B680F2B27D80022796836202BF07EFB51
:1046600036202BF095FB294A7B681360284BD3F842
:10467000E830274A43F01003C2F8E830244BD3F85F
:10468000E83003F01003FB60FB6807F1100207F14C
:1046900014031146184633F071FABB6ABB63BB6B57
:1046A000002B06D101E001232BE033F03BFAF86345
:1046B00004E033F037FA03465B00FB63FB6B154AFB
:1046C000A2FB03239B0C013B7B63134B134A1A6031
:1046D000114B40F2E732DA600F4A7B6B53600E4BAE
:1046E00000221A610C4B00229A600B4835F06EFED6
:1046F0000346002B04D1084835F03EFF034600E096
:10470000012318464037BD4680BD00BFEC010024A0
:104710000044025883DE1B436CFF0024001000405D
:1047200080B400AF00BFBD465DF8047B704780B425
:1047300000AF00BFFDE780B400AF00BFFDE780B46D
:1047400000AF00BFFDE780B400AF00BFFDE780B45D
:1047500000AF00BFBD465DF8047B704780B500AF79
:1047600002482DF0EDFA00BF80BD00BF24040024F4
:1047700080B500AF02482DF0E3FA00BF80BD00BF56
:104780009C04002480B500AF02482DF0D9FA00BF88
:1047900080BD00BF4C05002480B500AF02482DF05D
:1047A000CFFA00BF80BD00BFC405002480B500AFB4
:1047B00002482DF0C5FA00BF80BD00BF580A002492
:1047C00080B500AF034829F0BDFD034829F0BAFDCC
:1047D00000BF80BDD40200244403002480B500AF94
:1047E000024836F0BBFD00BF80BD00BFC4090024F5
:1047F00080B500AF064B1B79DBB2002B02D004481A
:104800002BF020FD034836F091F800BF80BD00BFBB
:10481000380500246CFF002480B500AF024830F05A
:104820001BFA00BF80BD00BF4C07002480B500AF5D
:1048300002482EF0FBFD00BF80BD00BF3C060024F7
:1048400080B500AF024836F071F800BF80BD00BFF0
:104850007809002480B400AF01231846BD465DF8F6
:10486000047B704780B582B000AF7860396053F048
:10487000CFFE034616221A604FF0FF331846083762
:10488000BD4680BD80B582B000AF78604FF0FF318B
:104890007868FFF7E7FF00BFFDE780B586B000AF9F
:1048A000F860B9607A6000237B610AE0AFF30080B2
:1048B0000146BB685A1CBA60CAB21A707B690133E0
:1048C0007B617A697B689A42F0DB7B68184618370F
:1048D000BD4680BD80B483B000AF78604FF0FF3339
:1048E00018460C37BD465DF8047B704780B483B032
:1048F00000AF786039603B684FF400525A60002383
:1049000018460C37BD465DF8047B704780B483B011
:1049100000AF7860012318460C37BD465DF8047B74
:10492000704780B485B000AFF860B9607A6000234A
:1049300018461437BD465DF8047B704780B586B0D5
:1049400000AF7860144A154BD31A7B617B693B61D9
:10495000134B1B68002B02D1114B124A1A60104BEB
:104960001A687B6813443A699A4207D253F050FEA2
:1049700003460C221A604FF0FF3309E0084B1B6816
:10498000FB60074B1A687B681344054A1360FB6899
:1049900018461837BD4680BD0000052400100000F1
:1049A000B8FF0024A8C80324DFF834D028F03CFD69
:1049B000002103E00B4B5B58435004310A480B4B7A
:1049C00042189A42F6D30A4A02E0002342F8043B16
:1049D000084B9A42F9D353F021FEFCF75DFC704777
:1049E000000005248043060800000024B8020024CB
:1049F000B8020024A4C80324FEE780B400AF00BFBF
:104A0000BD465DF8047B704780B500AF02F012F838
:104A100001F0DEFF00BF80BD80B582B000AF7860DE
:104A200002F010F800BF0837BD4680BD80B483B0E7
:104A300000AF7860044A7B681A607B6818460C37C0
:104A4000BD465DF8047B70470CA3050880B582B0B5
:104A500000AF78607868FFF7E9FF0C21786852F0C2
:104A60008CF97B6818460837BD4680BD80B584B098
:104A700000AF78600B46FB70FB78002B11D07B6891
:104A80001B6810331B687868984702467B689B68F0
:104A9000D31AFB607B685A68FB681A447B685A60CB
:104AA00008E07B681B6810331B68786898470246EB
:104AB0007B689A6000BF1037BD4680BD80B483B06C
:104AC00000AF78607B685B6818460C37BD465DF8C0
:104AD000047B704780B483B000AF786039607B6836
:104AE0003A685A6000BF0C37BD465DF8047B7047DA
:104AF00080B483B000AF78600B4B1B680A4A43F068
:104B000080731360094B1A680849094B13430B6003
:104B1000084B1B68074A43F00103136000BF0C37C2
:104B2000BD465DF8047B7047FCED00E0B01F00E07F
:104B300055CEACC5001000E080B485B000AFF86081
:104B4000B9607A603B607A68BB68D21A3B685B08E0
:104B50001A443B68B2FBF3F318461437BD465DF8C0
:104B6000047B704780B483B000AF7860034B1B6850
:104B700018460C37BD465DF8047B7047041000E012
:104B800080B584B000AF78600B46FB70FB78002BDB
:104B900011D07B681B6810331B6878689847024601
:104BA0007B689B68D31AFB607B685A68FB681A4471
:104BB0007B685A6008E07B681B6810331B68786864
:104BC000984702467B689A6000BF1037BD4680BD9B
:104BD00080B582B000AF7860054A7B681A607B6858
:104BE0001846FFF723FF7B6818460837BD4680BD8F
:104BF000E4A2050880B582B000AF78607868FFF75E
:104C0000E7FF0C21786852F0B8F87B68184608373F
:104C1000BD4680BD80B483B000AF7860044A7B6835
:104C20001A607B6818460C37BD465DF8047B7047F8
:104C30004CA3050880B582B000AF78607868FFF7B4
:104C4000E9FF0421786852F098F87B681846083725
:104C5000BD4680BD80B586B000AF786008233B615B
:104C600000237B61074B1B88BB60074B1B88FB60E5
:104C700007F108031946002028F05EF900BF183735
:104C8000BD4680BD86BC032488BC032480B588B0A3
:104C900000AFF860B9607A6007F1100300221A6073
:104CA0005A609A6007F110031946002028F000FAB4
:104CB0000346002B14BF01230023DBB2002B0BD0D3
:104CC0004FF0500383F31188BFF36F8FBFF34F8F03
:104CD000FB6100BF00BFFDE73B69002B09D07B698A
:104CE0001A46BB681A60BB691A467B681A600123C2
:104CF00000E0002318462037BD4680BD80B582B055
:104D000000AF7860054A7B681A607B681846FFF739
:104D100081FF7B6818460837BD4680BD34A305086F
:104D200080B582B000AF78607868FFF7E7FF0421B4
:104D3000786852F022F87B6818460837BD4680BD77
:104D400080B582B000AF00237B6015E07B68DBB2EA
:104D5000184600F00BF90346002B0AD00A4A7B687C
:104D600052F82330012B04D0074A7B68012142F816
:104D700023107B6801337B607B68042BE6DD00BF7A
:104D800000BF0837BD4680BDBCFF002480B582B09F
:104D900000AF0346FB71FB79032B49D801A252F8FF
:104DA00023F000BFB54D0008D34D0008F14D0008B9
:104DB000114E0008FB79204A52F82330002B0CBF1B
:104DC00001230023DBB21A4601211C482EF000FF0C
:104DD0002EE0FB79184A52F82330002B0CBF012338
:104DE0000023DBB21A46082115482EF0F1FE1FE021
:104DF000FB79114A52F82330002B0CBF012300230A
:104E0000DBB21A464FF480410E482EF0E1FE0FE06F
:104E1000FB79094A52F82330002B0CBF01230023F1
:104E2000DBB21A464FF4004106482EF0D1FE00BF17
:104E300000BF0837BD4680BDBCFF002400000258FB
:104E4000001802580004025880B582B000AF034633
:104E5000FB71FB79032B49D801A252F823F000BF64
:104E6000714E00088F4E0008AD4E0008CD4E000870
:104E7000FB79204A52F82330002B01D0012300E0B7
:104E800000231A4601211C482EF0A2FE2EE0FB79D9
:104E9000184A52F82330002B01D0012300E00023F0
:104EA0001A46082115482EF093FE1FE0FB79114A9F
:104EB00052F82330002B01D0012300E000231A46D2
:104EC0004FF480410E482EF083FE0FE0FB79094A33
:104ED00052F82330002B01D0012300E000231A46B2
:104EE0004FF4004106482EF073FE00BF00BF0837A4
:104EF000BD4680BDBCFF00240000025800180258C7
:104F00000004025880B582B000AF0346FB71FB7904
:104F1000032B21D801A252F823F000BF2D4F000827
:104F2000374F0008414F00084D4F000801210C4841
:104F30002EF067FE10E008210A482EF062FE0BE01A
:104F40004FF4804108482EF05CFE05E04FF400412C
:104F500005482EF056FE00BF00BF0837BD4680BD95
:104F600000000258001802580004025880B584B0AE
:104F700000AF0346FB710023FB73FB79032B29D899
:104F800001A252F823F000BF994F0008A74F000874
:104F9000B54F0008C54F0008012113482EF000FE50
:104FA0000346FB7316E0082110482EF0F9FD034676
:104FB000FB730FE04FF480410D482EF0F1FD0346E6
:104FC000FB7307E04FF4004109482EF0E9FD03466A
:104FD000FB7300BFFB7B012B0CBF01230023DBB263
:104FE00018461037BD4680BD000002580018025810
:104FF0000004025880B483B000AF7860044A7B6834
:105000001A607B6818460C37BD465DF8047B704714
:1050100040B4050880B582B000AF78607868FFF7CB
:10502000E9FF7C21786851F0A8FE7B6818460837B4
:10503000BD4680BD80B400AF034B1B681846BD461B
:105040005DF8047B704700BF8CBC032480B483B040
:1050500000AF78600B46FB707B68FA7883F87820A5
:105060007B68012283F8792000BF0C37BD465DF8CC
:10507000047B704780B582B000AF78600B467B80C0
:1050800013463B800C4B1B887A889A4204D30B4B07
:105090001B883A889A4205D2094B0A4A9E210A483F
:1050A00052F0B6FF094A7B881380094A3B88138077
:1050B00000BF0837BD4680BD80BC032482BC0324EA
:1050C00084910508E89105082C92050886BC032404
:1050D00088BC032480B582B000AF78607B6893F809
:1050E0007A30002B09D07B685A687B685B681B6844
:1050F0001B6810469847034600E00023184608370F
:10510000BD4680BD80B582B000AF786078683DF064
:105110002DF87B681B68AC331B687868984700BF24
:105120000837BD4680BD80B483B000AF7860396079
:10513000002318460C37BD465DF8047B704700001D
:1051400080B584B000AFF860B9607A603B60BB683E
:10515000002B06D10F4B104A40F2D2210F4852F0DB
:1051600057FFFB68BA68DA63FB687A681A647B6881
:10517000002B14BF01230023DAB2094B1A70FB681D
:105180001B688C331B683968F868984700BF103774
:10519000BD4680BD74920508AC9205082C920508A6
:1051A0008ABC032480B483B000AF786039607B6828
:1051B0003A685A643B68002B14BF01230023DAB21B
:1051C000034B1A7000BF0C37BD465DF8047B704777
:1051D0008BBC032480B483B000AF786039607B68F7
:1051E0003A681A6100BF0C37BD465DF8047B704712
:1051F00080B483B000AF78600B46FB707B68FA78B0
:1052000083F8702000BF0C37BD465DF8047B704703
:1052100080B483B000AF7860002318460C37BD46D9
:105220005DF8047B704780B582B000AF78600B46B4
:105230007B807B689B6B002B04D07B689B6B7A88A0
:105240001046984700BF0837BD4680BD80B483B084
:1052500000AF78604FF6FF7318460C37BD465DF817
:10526000047B704780B582B000AF78607B685A6875
:105270007B685B681B6818331B68104698470346B9
:1052800018460837BD4680BD80B485B000AF786051
:105290007B6893F878207B6893F834309A4211D079
:1052A000144B1B78002B1ED1134B1B88BB81134B57
:1052B0001A88114B1A80114ABB8913800D4B0122A9
:1052C0001A7010E00B4B1B78002B0CD00A4B1B887C
:1052D000FB810A4B1A88084B1A80084AFB89138005
:1052E000044B00221A7000BF1437BD465DF8047BE2
:1052F000704700BF84BC032482BC032480BC032409
:1053000080B582B000AF78607B6818463CF08CF9BD
:1053100000BF0837BD4680BD80B582B000AF786061
:10532000054A7B681A607B681846FFF763FE7B6856
:1053300018460837BD4680BD38A8050880B582B03C
:1053400000AF78607868FFF7E7FF7C21786851F05C
:1053500014FD7B6818460837BD4680BD80B582B015
:1053600000AF78607B681846FFF7CAFF00BF0837B8
:10537000BD4680BD80B582B000AF78607B681846BE
:1053800002F0B0FB7A687B681B688C331B680C49A1
:10539000104698477B687C331846FFF7A9FB7A686C
:1053A0007B687C3319461046FFF714FF7B680121A8
:1053B0001846FFF71DFF00BF0837BD4680BD00BF80
:1053C0000000007080B582B000AF78607B681B6819
:1053D00080331B68786898477B681B6878331B6844
:1053E0007868984700F074F97A687B681B687033B6
:1053F0001B681046984701224FF4806109482EF03F
:10540000E7FB01224FF4004107482EF0E1FB00F0DA
:105410005FF97A687B681B6870331B681046984791
:1054200000BFF4E7000C02580018025880B582B0A3
:1054300000AF78607B68184602F0ECFB0346184624
:105440000837BD4680BD80B582B000AF7860396056
:105450007B683968184602F0EBFB00BF0837BD4691
:1054600080BD000080B586B000AF786039607B6891
:105470003968184602F0F2FB1F4B0022C3F8842063
:10548000BFF34F8F00BF1C4BD3F880307B617B692B
:105490005B0BC3F30E033B617B69DB08C3F30903BA
:1054A000FB603B695A0143F6E0731340FA689207C8
:1054B00011491343C1F87432FB685A1EFA60002B7D
:1054C00014BF01230023DBB2002BEAD13B695A1E33
:1054D0003A61002B14BF01230023DBB2002BDBD188
:1054E000BFF34F8F00BFBFF36F8F00BF00BF00BF80
:1054F0001837BD4680BD00BF00ED00E080B582B02A
:1055000000AF78607B68184602F010FB00BF0837D8
:10551000BD4680BD80B582B000AF78607B6818461C
:1055200002F014FB00BF0837BD4680BD80B582B0D5
:1055300000AF78607B68184602F016FB00BF0837A2
:10554000BD4680BD80B582B000AF78607B681846EC
:1055500002F018FB00BF0837BD4680BD80B582B0A1
:1055600000AF78607B68002B07D0FFF763FD034630
:10557000012118463CF014FE06E0FFF75BFD0346F0
:10558000002118463CF00CFE012318460837BD46A2
:1055900080BD000080B582B000AF7860084A7B68AB
:1055A0001A607B687C331846FFF712FB7B6818464D
:1055B000FFF7B2FE7B6818460837BD4680BD00BFC6
:1055C00064A3050880B582B000AF78607868FFF703
:1055D000E1FF8821786851F0D0FB7B6818460837D6
:1055E000BD4680BD80B500AF00220121012037F00B
:1055F000B4FE03460F4A13600E4B1B68002B05D107
:105600000D4B0E4A28210E4852F002FD00220421C3
:10561000012037F0C1FF03460A4A1360094B1B689B
:10562000002B05D1084B054A2C21054852F0F0FC0F
:1056300000BF80BDCCFF0024FC92050848930508FC
:1056400078930508D0FF0024DC93050880B500AFEF
:10565000044B1B684FF0FF31184637F007FF00BFBF
:1056600080BD00BFCCFF002480B500AF034B1B689A
:10567000184637F04DFF00BF80BD00BFCCFF0024AF
:1056800080B500AF034B1B680021184637F0EEFED3
:1056900000BF80BDCCFF002480B500AF034B1B686A
:1056A000184637F035FF00BF80BD00BFCCFF002497
:1056B00080B500AF044B186800230022034937F07F
:1056C000DFFF00BF80BD00BFD0FF0024A801002481
:1056D00080B582B000AF094B1868391D0023002245
:1056E00038F02EF8054B1868391D4FF0FF330022B3
:1056F00038F026F800BF0837BD4680BDD0FF002433
:1057000080B483B000AF0346FB80B7F90630002BAE
:105710000BDBFB8803F01F020749B7F906305B0972
:10572000012000FA02F241F8232000BF0C37BD46E9
:105730005DF8047B704700BF00E100E080B483B0F7
:1057400000AF0346FB80B7F90630002B12DBFB8865
:1057500003F01F020A49B7F906305B09012000FA7D
:1057600002F2203341F82320BFF34F8F00BFBFF375
:105770006F8F00BF00BF0C37BD465DF8047B7047DC
:1057800000E100E080B483B000AF78607B68002265
:105790001A607B6818460C37BD465DF8047B70477D
:1057A00080B483B000AF78607B681B6818460C3704
:1057B000BD465DF8047B704780B483B000AF78606D
:1057C000044A7B681A607B6818460C37BD465DF852
:1057D000047B70478CA4050880B582B000AF786068
:1057E0007868FFF7E9FF0421786851F0C6FA7B6812
:1057F00018460837BD4680BD80B582B000AF7860DE
:105800007B681B6844331B687868984700BF08377B
:10581000BD4680BD80B483B000AF7860044A7B6829
:105820001A607B6818460C37BD465DF8047B7047EC
:1058300018B5050880B582B000AF78607868FFF7CA
:10584000E9FF0C21786851F098FA7B681846083710
:10585000BD4680BD80B483B000AF78603960094A2E
:105860007B681A607B683A685A607B6800221A720B
:105870007B6800225A727B6818460C37BD465DF87B
:10588000047B704718B5050880B483B000AF78601A
:10589000012318460C37BD465DF8047B704780B580
:1058A00082B000AF78607A687B681B6828331B6819
:1058B0001046984700BF0837BD4680BD80B582B00E
:1058C00000AF78607B685A687B685B681B6814333C
:1058D0001B681046984700BF0837BD4680BD80B59D
:1058E00082B000AF7860FFF7A5FB03461846FFF7CC
:1058F000E5FF00BF0837BD4680BD80B582B000AF70
:1059000078607B680C331846FFF73CFF7B681846CD
:105910000837BD4680BD0000B0B582B000AF7860EA
:105920007A687B680C3319461046FFF793FF0E4ADE
:105930007B681A607B6803F10C007B68203360226F
:1059400019463CF07FFD7B6820335F241D4604E050
:105950002846FFF7D2FF013C2435002CF8DA7B689B
:1059600018460837BD46B0BD3CA4050880B582B0D6
:1059700000AF7860094A7B681A605A20FFF7DEFEA4
:105980007B680C33184600F017FB7B681846FFF75E
:1059900041FF7B6818460837BD4680BD3CA405081A
:1059A00080B582B000AF78607868FFF7DFFF4FF412
:1059B0005A61786851F0E1F97B6818460837BD46AE
:1059C00080BD000080B584B000AF7860124BD3F882
:1059D000D430114A43F01003C2F8D4300E4BD3F840
:1059E000D43003F01003FB60FB680B4BDB6F0A4AFB
:1059F00043F01003D367084BDB6F074A23F0100313
:105A0000D367064B064A1A625A20FFF779FE00BF99
:105A10001037BD4680BD00BF004402583C0600243C
:105A2000DF58000880B584B000AF78600B46FB708B
:105A30000023FB60FB780B2B26D801A252F823F041
:105A40007D5A0008775A0008715A0008895A0008E0
:105A5000895A0008895A0008895A0008835A0008A0
:105A6000835A0008835A0008835A0008835A0008A2
:105A70000023FB600EE00123FB600BE00223FB60D0
:105A800008E00523FB6005E0054B064A6521064852
:105A900052F0BEFAFB6818461037BD4680BD00BF05
:105AA000209405083C9405088894050880B584B0C6
:105AB00000AF78600B46FB700023FB60FB780A2B7D
:105AC00021D801A252F823F0015B0008FB5A00081C
:105AD000F55A0008075B0008075B0008075B000831
